:100000001FC0F3C02BC02AC029C028C0D9C026C039
:1000100025C024C023C022C021C0B9C01FC01EC03B
:100020001DC01CC01BC034C035C038C03BC03EC062
:1000300041C044C045C048C04AC04BC04EC051C07A
:1000400011241FBECFEDCDBF20E0A0E6B0E001C07F
:100050001D92A336B207E1F748D001C1D1CFC398B2
:100060009BB397709BBB9BB3880F880F880F982B0F
:100070009BBB0895E82FC39A8BB384708BBB8E2FE4
:1000800090E08D30910580F5FC01ED5EFF4F099405
:10009000D89A08958BB38F698BBB08958BB3826216
:1000A0008BBB08958BB38E608BBB08958BB388692F
:1000B0008BBB08958BB388648BBB0895DE9A08953B
:1000C0008BB38D618BBB08958BB38BBB0895DB9A8B
:1000D00008958BB38A668BBB08958BB381698BBB04
:1000E00008958BB3836C8BBB08958AB38B6F8ABBE7
:1000F000BB9A80E48BBF83E085BF90E89BBF85BF40
:100100007894AF9A85E884BB8EEE82BF83B7846013
:1001100083BF89B7826089BF0F2EF5E6EF2EF02DE1
:100120000F2EF4E6FF2EF02D1FE1DAE08091620041
:10013000982F937051F58093610027C080916200E1
:10014000803220F010936200D093610080916000B3
:100150008A3011F4D093600087E893E10197F1F7BA
:1001600000C00000809162007ADF87E893E1019788
:10017000F1F700C000008091600090E07BDFC1508B
:10018000E9F6015099F2CF2DD9CF0E2DFCCF1F9259
:100190000F920FB60F9211248F939F9387EA91E6E7
:1001A0000197F1F700C00000809160008F5F80939D
:1001B00060009F918F910F900FBE0F901F90189528
:1001C0001F920F920FB60F9211248F9385E884BB74
:1001D0008FEE82BF809162008F5F809362008F916B
:1001E0000F900FBE0F901F9018951F920F920FB691
:1001F0000F9211242F933F934F935F936F937F93AD
:100200008F939F93AF93BF93EF93FF9387EA91E60A
:100210000197F1F700C000008BE02CDF9FE32DE099
:1002200083E0915020408040E1F700C000008091C1
:1002300060008F5F8093600010926200FF91EF91E9
:10024000BF91AF919F918F917F916F915F914F91EE
:100250003F912F910F900FBE0F901F901895F8941B
:02026000FFCFCE
:00000001FF
