S01400006865697373657264726168742E737265630A
S11300001DC0E3C029C028C027C026C0C9C024C061
S113001023C022C021C020C01FC0A9C01DC01CC055
S11300201BC01AC019C032C033C036C039C03CC06E
S11300303FC042C043C046C048C049C011241FBE8F
S1130040CFEDCDBF20E0A0E6B0E001C01D92A33605
S1130050B207E1F740D0D1C0D3CFC3989BB3977018
S11300609BBB9BB3880F880F880F982B9BBB08956D
S1130070E82FC39A8BB384708BBB8E2F90E08B30A8
S1130080910540F5FC01ED5EFF4F0994D89A08955F
S11300908BB38F698BBB08958BB382628BBB08953E
S11300A08BB38E608BBB08958BB388698BBB08952B
S11300B08BB388648BBB0895DE9A08958BB38D61EE
S11300C08BBB08958BB38BBB0895DB9A08958BB3D8
S11300D08A668BBB08958AB38B6F8ABBBB9A80E414
S11300E08BBF83E085BF90E89BBF85BF7894AF9AB0
S11300F085E884BB8EEE82BF83B7846083BF89B7F3
S1130100826089BF0F2EF5E6EF2EF02D0F2EF4E658
S1130110FF2EF02D1FE1DAE080916200982F93709A
S113012021F58093610021C080916200803220F02B
S113013010936200D093610087E893E10197F1F78F
S113014000C000008091620088DF87E893E1019796
S1130150F1F700C000008091610090E089DFC15098
S113016019F70150C9F2CF2DDFCF0E2DFCCF1F920E
S11301700F920FB60F9211248F939F9387EA91E603
S11301800197F1F700C00000809160008F5F8093B9
S113019060009F918F910F900FBE0F901F90189544
S11301A01F920F920FB60F9211248F9385E884BB90
S11301B08FEE82BF809162008F5F809362008F9187
S11301C00F900FBE0F901F9018951F920F920FB6AD
S11301D00F9211248F939F9387EA91E60197F1F789
S11301E000C0000010926000109262009F918F91F5
S11101F00F900FBE0F901F901895F894FFCF3C
S9030000FC
