S01400006865697373657264726168742E737265630A
S11300001FC0FDC036C035C034C033C0E3C031C0EA
S113001030C02FC02EC02DC02CC0C3C02AC029C0E0
S113002028C027C026C064C05FC066C03CC03DC0B5
S113003040C043C046C049C04CC04DC050C052C06F
S113004011241FBECFEDCDBF10E0A0E6B0E0E2E783
S1130050F2E002C005900D92A236B107D9F720E074
S1130060A2E6B0E001C01D92A436B207E1F748D081
S1130070FEC0C6CFC3989BB397709BBB9BB3880F3E
S1130080880F880F982B9BBB0895E82FC39A8BB3D6
S113009084708BBB8E2F90E08D30910580F5FC0130
S11300A0ED5EFF4F0994D89A08958BB38F698BBB8B
S11300B008958BB382628BBB08958BB38E608BBB28
S11300C008958BB388698BBB08958BB388648BBB0D
S11300D00895DE9A08958BB38D618BBB08958BB31D
S11300E08BBB0895DB9A08958BB38A668BBB089506
S11300F08BB381698BBB08958BB3836C8BBB0895E1
S11301008AB38B6F8ABBBB9A80EC8BBF83E085BFBD
S113011085BF7894AF9A85E884BB8EEE82BF83B79F
S1130120846083BF89B7826089BF0F2EF5E6EF2E06
S1130130F02D0F2EF4E6FF2EF02DD1E01FE180917B
S11301406300982F937059F58093620028C08091C2
S11301506300803228F010936300D093600006C0DF
S1130160809160008A3010F0D093600087E893E1BA
S11301700197F1F700C00000809163007BDF87E8FE
S113018093E10197F1F700C000008091600090E0D6
S11301907CDFC150E1F6015091F2CF2DD8CF0E2D66
S11301A0FCCF1F920F920FB60F9211248F939F933F
S11301B087EA91E60197F1F700C0000080916000A2
S11301C08F5F809360009F918F910F900FBE0F906F
S11301D01F9018951F920F920FB60F9211248F93B0
S11301E085E884BB8FEE82BF809163008F5F80932C
S11301F063008F910F900FBE0F901F9018951F9260
S11302000F920FB60F9211242F933F934F935F9346
S11302106F937F938F939F93AF93BF93EF93FF93CA
S113022087EA91E60197F1F700C0000080E02DDF36
S11302309FE724E88EE1915020408040E1F700C020
S1130240000083E08093600010926300FF91EF91BF
S1130250BF91AF919F918F917F916F915F914F91DA
S11302603F912F910F900FBE0F901F901895F89407
S1050270FFCFBA
S1050272030083
S9030000FC
